:107E000001C0ACC0112484B7882349F0982F9A7020
:107E1000923029F081FF02C097EF94BFD7D085E060
:107E20008093810082E08093C00088E18093C1004C
:107E300086E08093C2001092C4008FE0B2D0259AF1
:107E400086E028E13EEF91E03093850020938400A6
:107E500096BBB09BFECF1D9AA8958150A9F7C0E0B4
:107E6000D0E093D0813481F490D0182FA0D0123874
:107E700029F482E083D080E181D0F3CF113811F46E
:107E800086E0F8CF83E0F6CF823419F484E197D00E
:107E9000F2CF853411F485E0FACF853549F475D0F9
:107EA000C82FD0E072D0D82BCC0FDD1F80D0E3CF0D
:107EB000863521F484E083D080E0DCCF843679F508
:107EC00064D063D0D82E61D0F82E00E011E05DD0F0
:107ED000F80181938F01DE12FACF69D0F5E4FF1229
:107EE00001C0FFCF40E050E063E0CE0137D07E011B
:107EF00000E011E0F8014081818150E0582B61E001
:107F0000C7012CD0F2E0EF0EF11C0E5F1F4FD01214
:107F1000F1CF40E050E065E0CE0120D0ACCF843717
:107F200071F433D032D0F82E30D041D08E01F80128
:107F300085918F0123D0FA94F110F9CF9CCF85372A
:107F400039F435D08EE11AD085E918D08FE092CF80
:107F5000813509F0ABCF88E024D0A8CFFC010A011D
:107F600067BFE895112407B600FCFDCF667029F0C5
:107F7000452B19F481E187BFE89508959091C000E1
:107F800095FFFCCF8093C60008958091C00087FFC5
:107F9000FCCF8091C00084FD01C0A8958091C600EF
:107FA0000895E0E6F0E098E1908380830895EDDFA6
:107FB000803219F088E0F5DFFFCF84E1DFCFCF9387
:107FC000C82FE3DFC150E9F7CF91F1CF282E80E031
:087FD000E8DFE0E0FF2709945F
:027FFE00020679
:0400000300007E007B
:00000001FF
